:020000040800F2
:1000000018040020350D0008FD0C0008FF0C000846
:10001000010D0008030D0008050D00080000000098
:10002000000000000000000000000000070D0008B4
:10003000090D0008000000000B0D00080D0D000860
:10004000450D0008490D00084D0D0008510D000830
:10005000550D0008590D00085D0D0008610D0008E0
:10006000650D0008690D00086D0D0008710D000890
:10007000750D0008790D00087D0D0008810D000840
:10008000850D0008890D00088D0D0008910D0008F0
:10009000950D0008990D00089D0D0008A10D0008A0
:1000A000A50D0008A90D0008AD0D0008B10D000850
:1000B000B50D0008B90D0008BD0D0008C10D000800
:1000C000C50D0008C90D0008CD0D0008D10D0008B0
:1000D000D50D0008D90D0008DD0D0008E10D000860
:1000E000E50D0008E90D0008ED0D0008F10D000810
:1000F000F50D0008F90D0008FD0D0008010E0008BF
:10010000050E0008090E00080D0E0008110E00086B
:10011000150E0008190E00081D0E0008210E00081B
:10012000250E0008290E00082D0E0008310E0008CB
:10013000350E0008390E00083D0E0008410E00087B
:10014000450E0008490E00084D0E0008510E00082B
:10015000550E0008590E00085D0E0008610E0008DB
:10016000650E0008690E00086D0E0008710E00088B
:10017000750E0008790E00087D0E000800000000D2
:10018000810E0008850E00082DE9F843040016D002
:100190002078DFF8F862C10713D5B06800F00C00D2
:1001A000042807D0B06800F00C0008283DD1706822
:1001B00041023AD53068810303D56068002800F019
:1001C0005F812078B24F810719D5B06810F00C0F0D
:1001D00007D0B06800F00C0008285CD170684102BC
:1001E00059D43068810703D5E068012840F0488180
:1001F0003168206921F0F80141EAC00131602178BD
:10020000080773D56069A349002862D001220A60FB
:1002100000F044F90546706F810767D400F03EF99D
:10022000401B0228F7D903202DE16068B0F5803F1C
:1002300003D1306840F4803012E0B0F5A02F08D12F
:10024000306840F480203060316841F480313160A2
:1002500007E0326822F480323260306820F4802077
:100260003060606858B100F019F9054631688803BC
:10027000A7D400F013F9401B6528F7D3D3E700F0AB
:100280000DF90546316888039BD500F007F9401B3E
:100290006528F7D3C7E7E06868B10121396000F04D
:1002A000FDF8054630688107A2D400F0F7F8401B3E
:1002B0000228F7D9B7E700223A6000F0EFF80546C8
:1002C000316888079BD500F0E9F8401B0228F7D970
:1002D000A9E7086000F0E2F80546716F880705D5C8
:1002E00000F0DCF8401B0228F7D99CE72078410792
:1002F00060D5306C0025C1000BD400200090012592
:10030000316C41F080513164306C00F080500090CD
:100310000098DFF88481D8F80000C10513D4D8F81C
:10032000000040F48070C8F8000000F0B7F8814683
:10033000D8F80010C80506D400F0B0F8A0EB09000A
:100340000228F5D96FE7A068012805D00528306F8D
:1003500006D140F004003067306F40F0010005E046
:10036000400840003067306F20F00400306741F2F1
:100370008938A06860B100F091F88146316F880734
:1003800013D400F08BF8A0EB09004045F6D34AE700
:1003900000F084F88146316F880706D500F07EF8BA
:1003A000A0EB09004045F6D33DE71DB1306C20F0CD
:1003B00080503064A069002864D0B16801F00C015D
:1003C00008293AD002282AD10020386600F066F8C1
:1003D00005463068810105D500F060F8401B022811
:1003E000F7D920E7E269206A616A0243A06A4008FF
:1003F00042EA8112401E42EA0042E06A42EA00629A
:1004000072600121396600F049F8044630688101C4
:1004100038D400F043F8001B0228F7D903E7002086
:10042000386600F03BF80446306881012AD500F0B8
:1004300035F8001B0228F7D9F5E6012820D07068AE
:10044000E16900F480028A4202BF00F03F02216AA3
:100450008A4201BF47F6C0720240616AB2EB811F57
:100460000ED1A16A00F4403202F580324908B2EBA5
:10047000014F02BF00F07060E16AB0EB016F01D084
:10048000012000E00020BDE8F28300BF00380240F8
:1004900000004742800E474200700040014840681B
:1004A000704700BF000000202DE9F84F0022744C77
:1004B000DFF8D0814FF00F0901230F6893401F40F0
:1004C0009F4240F0CA804FEA420C032505FA0CF522
:1004D0004E686FEA050E06F00305012D1CBF06F0FD
:1004E0000306022E10D18668CD680EEA060605FACC
:1004F0000CF52E438660456825EA03034D68C5F375
:10050000001595402B43436093000D7905F00305DA
:10051000032D1ED0C6688D680EEA060605FA0CF596
:100520002E43C6600E7906F00306022E11D1D508BF
:1005300000EB850503F01C06D5F820B009FA06FA91
:100540002BEA0A0BD1F810A00AFA06F646EA0B06C7
:100550002E6205680EEA05060D7905F0030505FA19
:100560000CF545EA060CC0F800C04D6815F4403F94
:1005700073D04FF0000ECDF800E04FEA920CD8F89F
:10058000005045F48045C8F8005003F00C03D8F83B
:1005900000E03D4D0EF4804ECDF800E009FA03F680
:1005A000DDF800E055F82C50B543384EB04208BF96
:1005B0004FF0000E2AD0364EB04208BF4FF0010E69
:1005C00024D0344EB04208BF4FF0020E1ED0324E3F
:1005D000B04208BF4FF0030E18D0304EB04208BFF3
:1005E0004FF0040E12D02E4EB04208BF4FF0050E51
:1005F0000CD02C4EB04208BF4FF0060E06D02A4E4B
:10060000B0420CBF4FF0070E4FF0080E0EFA03F386
:10061000DFF874E02B434EF82C30FE43A3684D689E
:100620003340ED0248BF3B43A360E3684D6833406D
:10063000AD0248BF3B43E36063684D683340AD03A0
:1006400048BF3B436360236806EA030C4B68DB0347
:1006500048BF47EA0C0CC4F800C0521C0F2A7FF6B2
:100660002BAFBDE8F18F02B909048161704743697E
:1006700001EA0302994341EA0241816170470000A7
:10068000003C01404438024008380140000002406C
:100690000004024000080240000C0240001002402A
:1006A0000014024000180240001C024038B586B019
:1006B00000F0A2F800F03BF800F082F80020009073
:1006C0003A4C3B483B4D026842F008020260016828
:1006D00001F0080100910021009B00914FF480512E
:1006E000026842F0010202600022006800F001008E
:1006F000009000982046FFF7B6FF4FF4805001218C
:100700000190029100220392049201A92046FFF772
:10071000CBFE4FF480512046FFF7A9FF4FF47A70CB
:1007200000F084F8286800F095F82860F1E780B5BB
:1007300092B03021002206A800F08EF800F040F8B8
:100740000020009001221C48016841F080510160A6
:10075000006800F080500090002000990090174839
:10076000016841F480410160006800F4804000901D
:100770000220009909920690102100220A910C9201
:1007800006A8FFF701FD08B100F01FF80F220021B5
:100790000192029103910491059101A800F066F87D
:1007A00008B100F012F813B000BD0000000C0240C8
:1007B00030380240100000204038024000700040F5
:1007C0001421002201A800F047B872B6FEE70EE03F
:1007D00002684368024408305FEAC37C44BF4B446C
:1007E0005B1E52F804CB43F804CB091FF9D150F833
:1007F000041B0029ECD1704780B50B48016841F417
:1008000000710160026842F480620260016841F494
:1008100080710160032000F0C6F80F2000F008F995
:1008200000F026F9002002BD003C024038B5054624
:10083000FFF734FE15F1010F044602D00449087891
:100840002D18FFF72BFE001BA842FAD331BD00BFC5
:1008500000000020401C70474018491C1CBFB1F12B
:10086000010100F8012DF9D1704700002DE9F04198
:1008700004000F4654D0404E306800F00700B842E4
:1008800002D200F073F84BD121683C4D880712D595
:10089000490703D5A86840F4E050A8602078010714
:1008A00003D5A86840F46040A860A968A06821F05A
:1008B000F0010143A9602178C80729D560680128A3
:1008C00002D129688A0305E0022818BF032803D152
:1008D00029688A0103D423E029688A0720D5A968FA
:1008E000890840EA8100A860FFF7D8FD8046A86823
:1008F000616800F00C00B0EB810F09D0FFF7CEFD6E
:10090000A0EB080041F289318842F0D303202BE0AC
:10091000306800F00700874204D200F027F801D0C9
:10092000012021E02078420705D5A968E06821F47C
:10093000E0510143A96021780A0706D5A86821691A
:1009400020F4604040EAC100A86000F0ADF8AA6859
:100950000B490C4BC2F30312895CC84018600A486B
:10096000006800F065F80020BDE8F081377031685C
:1009700001F00701B9427047003C024000380240D4
:10098000880C00080C000020080000200A0101006B
:1009900002D4224B5A547047214801F00F01014400
:1009A00001F8042C70471F490A6860F30A2240F2DC
:1009B000FA5060F31F420A60704770B5194C236803
:1009C000C3F302230124C3F10705052D2FBF0F2612
:1009D000C3F1070604FA06F6761E1D1D072D34BF67
:1009E0000023DB1E3140994004FA03F3BDE8704058
:1009F0005B1E1A401143C9E7401EB0F1807F01D34E
:100A00000120704708494860F0220848027000231E
:100A10008B6007220A6000207047000000E400E0BD
:100A200018ED00E00CED00E010E000E023ED00E048
:100A300038B50D4D0D4A297804464FF47A73106885
:100A4000B3FBF1F1B0FBF1F0FFF7D6FF50B9102C7A
:100A500008D2002221464FF0FF30FFF7AEFFAC6016
:100A6000002032BD012032BD000000200C0000201B
:100A700081B0002000900B48416841F48041416002
:100A8000416801F4804100910021009B00910268BF
:100A900042F080520260006800F0805000900098A0
:100AA00001B070474038024030B5144C606800F027
:100AB0000C00042802D0082802D01DE0104830BDE8
:100AC000226821680023480202F03F0204D525680D
:100AD0000B48C5F3881103E021680A48C1F3881167
:100AE000A0FB010100F010F82168C1F30141491C8D
:100AF0004900B0FBF1F030BD024830BD043802407F
:100B000040787D010024F400D3BBD9B1B2F5803F19
:100B10005BD2022A1ED98C46B1FBF2F102FB11C353
:100B20001B0443EA1043B3FBF2FC02FB1C3380B20C
:100B300040EA0343B3FBF2F002FB103240EA0C4000
:100B400000237047022A05D98446B0FBF2F002FB6D
:100B500010C270474AB105D100F0010249085FEAAE
:100B60003000704700220023704700F051B80B009E
:100B70000200002100207047F7D3002200237047B5
:100B8000904271EB030CF2D370B5B1FA81F4B3FA71
:100B900083F52C1BA340C4F1200532FA05F633433C
:100BA000A2405FF00046E64002E05B085FEA3202E6
:100BB000841A71EB030524BF204629467641F4D3FD
:100BC00002000B003000002170BD70B5B1FA81F455
:100BD000B2FA82F5C4F120046419B4F12006DAD324
:100BE000B2405FF00044F440002502E052085FEAA2
:100BF0003303C61A71EB020E24BF304671466441BE
:100C00006D41F3D302000B002000290070BD0000ED
:100C10007047000010B5034A7A440832024C7C4405
:100C2000A41D03E0400000005000000004E0116833
:100C3000101D114488470246A242F8D110BD0000A1
:100C40004EF68851CEF20001086840F4700008604A
:100C5000BFF34F8FBFF36F8F4FF00170E1EE100ABB
:100C6000704700006BFBFFFF14000000B4000000A1
:100C700000000020000000000249086840F47000F5
:100C80000860704788ED00E00000000000000000F0
:100C9000010203040607080900F00DF8002801D03E
:100CA000FFF7B8FFAFF300800020AFF30080FFF73D
:100CB000FDFC00F002F80120704700F001B80000D0
:100CC0000746384600F002F8FBE7000080B5AFF3B6
:100CD0000080024A11001820ABBEFBE7260002008C
:100CE0000548014603B4684680F30988AFF30080E5
:100CF000FFF7A6FFFFF7D0FFA5EDF5FEFEE7FEE745
:100D0000FEE7FEE7FEE770477047704700F000B867
:100D10000248426801785118416070470000002085
:100D20000100000000000000100000000024F4009A
:100D3000000000000148804701480047790C000886
:100D4000E10C0008FFF7FEBFFFF7FEBFFFF7FEBF95
:100D5000FFF7FEBFFFF7FEBFFFF7FEBFFFF7FEBFC7
:100D6000FFF7FEBFFFF7FEBFFFF7FEBFFFF7FEBFB7
:100D7000FFF7FEBFFFF7FEBFFFF7FEBFFFF7FEBFA7
:100D8000FFF7FEBFFFF7FEBFFFF7FEBFFFF7FEBF97
:100D9000FFF7FEBFFFF7FEBFFFF7FEBFFFF7FEBF87
:100DA000FFF7FEBFFFF7FEBFFFF7FEBFFFF7FEBF77
:100DB000FFF7FEBFFFF7FEBFFFF7FEBFFFF7FEBF67
:100DC000FFF7FEBFFFF7FEBFFFF7FEBFFFF7FEBF57
:100DD000FFF7FEBFFFF7FEBFFFF7FEBFFFF7FEBF47
:100DE000FFF7FEBFFFF7FEBFFFF7FEBFFFF7FEBF37
:100DF000FFF7FEBFFFF7FEBFFFF7FEBFFFF7FEBF27
:100E0000FFF7FEBFFFF7FEBFFFF7FEBFFFF7FEBF16
:100E1000FFF7FEBFFFF7FEBFFFF7FEBFFFF7FEBF06
:100E2000FFF7FEBFFFF7FEBFFFF7FEBFFFF7FEBFF6
:100E3000FFF7FEBFFFF7FEBFFFF7FEBFFFF7FEBFE6
:100E4000FFF7FEBFFFF7FEBFFFF7FEBFFFF7FEBFD6
:100E5000FFF7FEBFFFF7FEBFFFF7FEBFFFF7FEBFC6
:100E6000FFF7FEBFFFF7FEBFFFF7FEBFFFF7FEBFB6
:100E7000FFF7FEBFFFF7FEBFFFF7FEBFFFF7FEBFA6
:080E8000FFF7FEBFFFF7FEBF04
:0400000508000CE102
:00000001FF
